{
  "contractName": "Voting",
  "abi": [
    {
      "constant": true,
      "inputs": [],
      "name": "votingStart",
      "outputs": [
        {
          "name": "",
          "type": "uint256"
        }
      ],
      "payable": false,
      "stateMutability": "view",
      "type": "function"
    },
    {
      "constant": true,
      "inputs": [
        {
          "name": "",
          "type": "uint256"
        }
      ],
      "name": "candidates",
      "outputs": [
        {
          "name": "id",
          "type": "uint256"
        },
        {
          "name": "name",
          "type": "string"
        },
        {
          "name": "party",
          "type": "string"
        },
        {
          "name": "voteCount",
          "type": "uint256"
        }
      ],
      "payable": false,
      "stateMutability": "view",
      "type": "function"
    },
    {
      "constant": true,
      "inputs": [],
      "name": "votingEnd",
      "outputs": [
        {
          "name": "",
          "type": "uint256"
        }
      ],
      "payable": false,
      "stateMutability": "view",
      "type": "function"
    },
    {
      "constant": true,
      "inputs": [],
      "name": "owner",
      "outputs": [
        {
          "name": "",
          "type": "address"
        }
      ],
      "payable": false,
      "stateMutability": "view",
      "type": "function"
    },
    {
      "constant": true,
      "inputs": [
        {
          "name": "",
          "type": "address"
        }
      ],
      "name": "voters",
      "outputs": [
        {
          "name": "",
          "type": "bool"
        }
      ],
      "payable": false,
      "stateMutability": "view",
      "type": "function"
    },
    {
      "constant": true,
      "inputs": [],
      "name": "countCandidates",
      "outputs": [
        {
          "name": "",
          "type": "uint256"
        }
      ],
      "payable": false,
      "stateMutability": "view",
      "type": "function"
    },
    {
      "inputs": [],
      "payable": false,
      "stateMutability": "nonpayable",
      "type": "constructor"
    },
    {
      "constant": false,
      "inputs": [
        {
          "name": "name",
          "type": "string"
        },
        {
          "name": "party",
          "type": "string"
        }
      ],
      "name": "addCandidate",
      "outputs": [
        {
          "name": "",
          "type": "uint256"
        }
      ],
      "payable": false,
      "stateMutability": "nonpayable",
      "type": "function"
    },
    {
      "constant": false,
      "inputs": [
        {
          "name": "candidateID",
          "type": "uint256"
        }
      ],
      "name": "vote",
      "outputs": [],
      "payable": false,
      "stateMutability": "nonpayable",
      "type": "function"
    },
    {
      "constant": true,
      "inputs": [],
      "name": "checkVote",
      "outputs": [
        {
          "name": "",
          "type": "bool"
        }
      ],
      "payable": false,
      "stateMutability": "view",
      "type": "function"
    },
    {
      "constant": true,
      "inputs": [],
      "name": "getCountCandidates",
      "outputs": [
        {
          "name": "",
          "type": "uint256"
        }
      ],
      "payable": false,
      "stateMutability": "view",
      "type": "function"
    },
    {
      "constant": true,
      "inputs": [
        {
          "name": "candidateID",
          "type": "uint256"
        }
      ],
      "name": "getCandidate",
      "outputs": [
        {
          "name": "",
          "type": "uint256"
        },
        {
          "name": "",
          "type": "string"
        },
        {
          "name": "",
          "type": "string"
        },
        {
          "name": "",
          "type": "uint256"
        }
      ],
      "payable": false,
      "stateMutability": "view",
      "type": "function"
    },
    {
      "constant": false,
      "inputs": [
        {
          "name": "_startDate",
          "type": "uint256"
        },
        {
          "name": "_endDate",
          "type": "uint256"
        }
      ],
      "name": "setDates",
      "outputs": [],
      "payable": false,
      "stateMutability": "nonpayable",
      "type": "function"
    },
    {
      "constant": true,
      "inputs": [],
      "name": "getDates",
      "outputs": [
        {
          "name": "",
          "type": "uint256"
        },
        {
          "name": "",
          "type": "uint256"
        }
      ],
      "payable": false,
      "stateMutability": "view",
      "type": "function"
    }
  ],
  "bytecode": "0x608060405234801561001057600080fd5b5060058054600160a060020a03191633179055610d51806100326000396000f3fe6080604052600436106100be577c010000000000000000000000000000000000000000000000000000000060003504630121b93f81146100c35780630a84a217146100ef578063101158af14610116578063164418131461012b57806326541b56146101595780633477ee2e1461029357806335b8e820146103a957806385a38635146103d35780638da5cb5b146103e8578063a3ec138d14610426578063b0417e981461047a578063b86eda911461048f578063dedf141e146104a4575b600080fd5b3480156100cf57600080fd5b506100ed600480360360208110156100e657600080fd5b50356104d4565b005b3480156100fb57600080fd5b5061010461063f565b60408051918252519081900360200190f35b34801561012257600080fd5b50610104610646565b34801561013757600080fd5b5061014061064c565b6040805192835260208301919091528051918290030190f35b34801561016557600080fd5b506101046004803603604081101561017c57600080fd5b81019060208101813564010000000081111561019757600080fd5b8201836020820111156101a957600080fd5b803590602001918460018302840111640100000000831117156101cb57600080fd5b91908080601f016020809104026020016040519081016040528093929190818152602001838380828437600092019190915250929594936020810193503591505064010000000081111561021e57600080fd5b82018360208201111561023057600080fd5b8035906020019184600183028401116401000000008311171561025257600080fd5b91908080601f016020809104026020016040519081016040528093929190818152602001838380828437600092019190915250929550610656945050505050565b34801561029f57600080fd5b506102bd600480360360208110156102b657600080fd5b5035610779565b604051808581526020018060200180602001848152602001838103835286818151815260200191508051906020019080838360005b8381101561030a5781810151838201526020016102f2565b50505050905090810190601f1680156103375780820380516001836020036101000a031916815260200191505b50838103825285518152855160209182019187019080838360005b8381101561036a578181015183820152602001610352565b50505050905090810190601f1680156103975780820380516001836020036101000a031916815260200191505b50965050505050505060405180910390f35b3480156103b557600080fd5b506102bd600480360360208110156103cc57600080fd5b50356108b5565b3480156103df57600080fd5b50610104610a36565b3480156103f457600080fd5b506103fd610a3c565b6040805173ffffffffffffffffffffffffffffffffffffffff9092168252519081900360200190f35b34801561043257600080fd5b506104666004803603602081101561044957600080fd5b503573ffffffffffffffffffffffffffffffffffffffff16610a58565b604080519115158252519081900360200190f35b34801561048657600080fd5b50610466610a6d565b34801561049b57600080fd5b50610104610a83565b3480156104b057600080fd5b506100ed600480360360408110156104c757600080fd5b5080359060200135610a89565b3360009081526001602052604090205460ff161561053c576040805160e560020a62461bcd02815260206004820152601660248201527f596f75206861766520616c726561647920766f74656400000000000000000000604482015290519081900360640190fd5b600354421015801561055057506004544211155b15156105a6576040805160e560020a62461bcd02815260206004820152601460248201527f566f74696e67206973206e6f7420616374697665000000000000000000000000604482015290519081900360640190fd5b6000811180156105b857506002548111155b151561060e576040805160e560020a62461bcd02815260206004820152601460248201527f496e76616c69642063616e646964617465204944000000000000000000000000604482015290519081900360640190fd5b336000908152600160208181526040808420805460ff19168417905593835282905291902060030180549091019055565b6002545b90565b60035481565b6003546004549091565b60055460009073ffffffffffffffffffffffffffffffffffffffff1633146106ee576040805160e560020a62461bcd02815260206004820152602660248201527f4f6e6c7920746865206f776e65722063616e20706572666f726d20746869732060448201527f616374696f6e0000000000000000000000000000000000000000000000000000606482015290519081900360840190fd5b60028054600190810191829055604080516080810182528381526020808201888152828401889052600060608401819052958652858252929094208151815591518051919492936107459390850192910190610c64565b5060408201518051610761916002840191602090910190610c64565b50606091909101516003909101555060025492915050565b600060208181529181526040908190208054600180830180548551600293821615610100026000190190911692909204601f81018790048702830187019095528482529194929390928301828280156108135780601f106107e857610100808354040283529160200191610813565b820191906000526020600020905b8154815290600101906020018083116107f657829003601f168201915b50505060028085018054604080516020601f60001961010060018716150201909416959095049283018590048502810185019091528181529596959450909250908301828280156108a55780601f1061087a576101008083540402835291602001916108a5565b820191906000526020600020905b81548152906001019060200180831161088857829003601f168201915b5050505050908060030154905084565b600060608060006108c4610ce2565b60008681526020818152604091829020825160808101845281548152600180830180548651600293821615610100026000190190911692909204601f810186900486028301860190965285825291949293858101939192919083018282801561096e5780601f106109435761010080835404028352916020019161096e565b820191906000526020600020905b81548152906001019060200180831161095157829003601f168201915b5050509183525050600282810180546040805160206001841615610100026000190190931694909404601f81018390048302850183019091528084529381019390830182828015610a005780601f106109d557610100808354040283529160200191610a00565b820191906000526020600020905b8154815290600101906020018083116109e357829003601f168201915b50505091835250506003919091015460209182015281519082015160408301516060909301519199909850919650945092505050565b60045481565b60055473ffffffffffffffffffffffffffffffffffffffff1681565b60016020526000908152604090205460ff1681565b3360009081526001602052604090205460ff1690565b60025481565b60055473ffffffffffffffffffffffffffffffffffffffff163314610b1e576040805160e560020a62461bcd02815260206004820152602660248201527f4f6e6c7920746865206f776e65722063616e20706572666f726d20746869732060448201527f616374696f6e0000000000000000000000000000000000000000000000000000606482015290519081900360840190fd5b600454158015610b2e5750600354155b1515610b84576040805160e560020a62461bcd02815260206004820152601c60248201527f566f74696e672064617465732061726520616c72656164792073657400000000604482015290519081900360640190fd5b808210610c01576040805160e560020a62461bcd02815260206004820152602260248201527f53746172742064617465206d757374206265206265666f726520656e6420646160448201527f7465000000000000000000000000000000000000000000000000000000000000606482015290519081900360840190fd5b42821015610c59576040805160e560020a62461bcd02815260206004820181905260248201527f53746172742064617465206d75737420626520696e2074686520667574757265604482015290519081900360640190fd5b600391909155600455565b828054600181600116156101000203166002900490600052602060002090601f016020900481019282601f10610ca557805160ff1916838001178555610cd2565b82800160010185558215610cd2579182015b82811115610cd2578251825591602001919060010190610cb7565b50610cde929150610d0b565b5090565b608060405190810160405280600081526020016060815260200160608152602001600081525090565b61064391905b80821115610cde5760008155600101610d1156fea165627a7a723058206fb5b9be50a54232be0a3c37e1cc72e8cdd62c0d47a5cc57034f015f681a46540029",
  "source": "// SPDX-License-Identifier: MIT\npragma solidity >=0.4.22 <0.9.0;\n\ncontract Voting {\n    struct Candidate {\n        uint id;\n        string name;\n        string party;\n        uint voteCount;\n    }\n\n    mapping(uint => Candidate) public candidates;\n    mapping(address => bool) public voters;\n\n    uint public countCandidates;\n    uint256 public votingStart;\n    uint256 public votingEnd;\n\n    address public owner;\n\n    modifier onlyOwner() {\n        require(msg.sender == owner, \"Only the owner can perform this action\");\n        _;\n    }\n\n    modifier hasNotVoted() {\n        require(!voters[msg.sender], \"You have already voted\");\n        _;\n    }\n\n    modifier votingActive() {\n        require(now >= votingStart && now <= votingEnd, \"Voting is not active\");\n        _;\n    }\n\n    constructor() public {\n        owner = msg.sender;\n    }\n\n    function addCandidate(string memory name, string memory party) public onlyOwner returns(uint) {\n        countCandidates++;\n        candidates[countCandidates] = Candidate(countCandidates, name, party, 0);\n        return countCandidates;\n    }\n\n    function vote(uint candidateID) public hasNotVoted votingActive {\n        require(candidateID > 0 && candidateID <= countCandidates, \"Invalid candidate ID\");\n        voters[msg.sender] = true;\n        candidates[candidateID].voteCount++;\n    }\n    \n    function checkVote() public view returns(bool) {\n        return voters[msg.sender];\n    }\n\n    function getCountCandidates() public view returns(uint) {\n        return countCandidates;\n    }\n\n    function getCandidate(uint candidateID) public view returns (uint, string memory, string memory, uint) {\n        Candidate memory candidate = candidates[candidateID];\n        return (candidate.id, candidate.name, candidate.party, candidate.voteCount);\n    }\n\n    function setDates(uint256 _startDate, uint256 _endDate) public onlyOwner {\n        require(votingEnd == 0 && votingStart == 0, \"Voting dates are already set\");\n        require(_startDate < _endDate, \"Start date must be before end date\");\n        require(_startDate >= now, \"Start date must be in the future\");\n        votingStart = _startDate;\n        votingEnd = _endDate;\n    }\n\n    function getDates() public view returns (uint256, uint256) {\n        return (votingStart, votingEnd);\n    }\n}\n",
  "sourcePath": "D:\\pragnya\\Blockchain_project\\contracts\\Voting.sol",
  "compiler": {
    "name": "solc",
    "version": "0.5.1+commit.c8a2cb62.Emscripten.clang"
  },
  "schemaVersion": "3.4.16",
  "updatedAt": "2024-08-22T19:34:25.426Z",
  "networkType": "ethereum",
  "devdoc": {
    "methods": {}
  },
  "userdoc": {
    "methods": {}
  }
}